:100000000C9438000C9455000C9455000C94550039
:100010000C9455000C9455000C9455000C9455000C
:100020000C9455000C9455000C9455000C945500FC
:100030000C9455000C9455000C9455000C945500EC
:100040000C9455000C9455000C9455000C9416011A
:100050000C9455000C9438010C9455000C945500E8
:100060000C9455000C9455000C9455000C945500BC
:1000700011241FBECFEFD4E0DEBFCDBF11E0A0E062
:10008000B1E0E0EEF5E002C005900D92A830B107B6
:10009000D9F711E0A8E0B1E001C01D92AC33B1077F
:1000A000E1F70E9457000C94EE020C9400000F93AD
:1000B0001F9380E880936100109261008FEF8ABBEC
:1000C0000E940501789408EF0E945D01182F80932B
:1000D0002E01813301F1823389F18333C1F18433FD
:1000E000E9F1853309F441C0863309F445C087330B
:1000F00009F447C0883309F449C0893329F780914E
:10010000080190E00E9476020E945D01182F809302
:100110002E01813301F70E94430200932F011093B7
:100120003001809331018FE291E00E94960180932B
:1001300032018FE291E00E948001C6CF0E947E02D0
:1001400000932F011093300180912D01EACF00938D
:100150002F01809330010E946802E3CF00932F01AA
:10016000809330010E94F700DCCF00932F01809331
:1001700030010E949D01D5CF81E090E00E94CB002C
:10018000A3CF87E390E00E94AA019ECF88E390E08E
:100190000E94C60199CF8B9AF89448EC50E00097E2
:1001A00019F120ED37E0FA013197F1F72150304095
:1001B000D1F760E070E028EE33E0FA013197F1F713
:1001C00021503040D1F7939A28EE33E0FA0131976D
:1001D000F1F721503040D1F793986F5F7F4F6A302D
:1001E000710549F70197E9F6939878940895BC98BA
:1001F00080E69AEE0197F1F786B382958F7080FDC5
:1002000002C081E108958FEF08951BB888ED8AB987
:1002100086E880BD10BC83E389B910921A01109260
:10022000190110922C0110922B0108951F920F9228
:100230000FB60F9211242F938F939F93EF93FF93F9
:100240009CB1809119018F5F8F708093190120916B
:100250001A01E9E0F1E0E80FF11D9083FF91EF91C1
:100260009F918F912F910F900FBE0F901F90189517
:100270001F920F920FB60F9211248F939F93EF93BB
:10028000FF9390912B0180912C019817A1F0E091A0
:100290002C01EF5FEF70E0932C01F0E0E55EFE4F84
:1002A00080818CB9FF91EF919F918F910F900FBE3C
:1002B0000F901F9018955598F5CF90911901809146
:1002C0001A019817D1F3E0911A01EF5FEF70E093F4
:1002D0001A01F0E0E75FFE4F80810895282F90918A
:1002E0002B019F5F9F7080912C019817E1F3E92FFC
:1002F000F0E0E55EFE4F208390932B01559A089520
:100300000F931F938C01FC0180810E946E01F80104
:1003100081810E946E01F80182810E946E01F801C4
:1003200083810E946E011F910F910895FC018181CC
:1003300092818927908189270895B99880E69AEE5D
:100340000197F1F786B3869580FD02C08FEF08957F
:1003500081E1089590EF91BB9FEF92BB803309F448
:10036000089520E03FE740E757E1E22FF0E0EC5F3F
:10037000FE4F808182BBCA010197F1F7332381F3DD
:100380002F5F243008F023703150EFCF90EF91BBF6
:100390009FEF92BB803309F4089520E03FE740E7E8
:1003A00057E1E22FF0E0E050FF4F808182BBCA01AD
:1003B0000197F1F7332381F32F5F243008F0237086
:1003C0003150EFCF0895A09AA19AA89A8AE1982F68
:1003D0009A95F1F7A99A8A95F1F7A89885E3982F4D
:1003E0009A95F1F7A9988A95F1F70895A09AA19A9C
:1003F00028E035E309C0A898A99A45E3932F9A9578
:10040000F1F7215049F0880FA998932F9A95F1F7A9
:1004100087FFF1CFA89AF0CFA998842F8A95F1F79A
:10042000A89A8DE08A95F1F7A098A99A842F8A95C9
:10043000F1F7989904C0A19AA99885E90895A19A1D
:10044000A9988EEE0895A098A19A90E080E0A998CE
:10045000A99A880F98998F5FA9989F5F9830B9F7EC
:100460000895A09AA19AA898A99AA89A0895A09ADE
:10047000A19A882321F0A898A99AA9980895A89AE2
:10048000A99AA99808950F931F930E94E30185E903
:100490000E94F60180933301109234010E942302DE
:1004A000082F81E00E9437020E942302182F80E06B
:1004B0000E9437020E943102111F1127111F802F45
:1004C000880F182B07FD1195812F1F910F9108950B
:1004D0008A9880E69AEE0197F1F780B38695869523
:1004E00080FD02C081E108958FEF08958FEF8ABBF0
:1004F0008BB380958BBB08950895089510922D01BC
:1005000010923801C098B89A80E69AEE0197F1F7F8
:10051000C09AB89880EA8A95F1F7B0990AC090E03D
:100520002AE1B09908C0822F8A95F1F79F5F943134
:10053000C1F780E0089590E02AE1B09B08C0822FC7
:100540008A95F1F79F5F9F30A1F3B099F8CF709132
:100550003501E0913B0140E050E060E03AE190E09D
:1005600020E8B09910C0832F8A95F1F79F5F9A30E9
:10057000C1F750932D017093350160933801E093DA
:100580003B0180E0089590E0832F8A95F1F79F5F0B
:100590009A3079F3B099F8CF953018F0442329F4C4
:1005A000522B269531F090E0DCCF413079F4722B5C
:1005B000F8CF4F5F443099F650932D017093350179
:1005C00060933801E0933B0181E00895423011F4DB
:1005D000622BE7CF433029F7E22BE3CFF894FFCF2C
:0805E0003060C0903090C06053
:00000001FF
