:100000000C9438000C9442000C9442000C94420072
:100010000C9442000C9442000C9442000C94420058
:100020000C9442000C9442000C9442000C94420048
:100030000C9442000C9442000C9442000C94420038
:100040000C9442000C9442000C9442000C94420028
:100050000C9442000C9442000C9442000C94420018
:100060000C9442000C9442000C9442000C94420008
:1000700011241FBECFEFD4E0DEBFCDBF0E946100D0
:100080000C94B6040C9400005D9BFECF8CB90895CF
:10009000FC018081882339F05D9BFECF8CB93196BD
:1000A00080818823C9F708955F9BFECF8CB10895A6
:1000B0001BB888E18AB986E880BD10BC83E389B9A2
:1000C0000895EF92FF920F931F93DF93CF9300D089
:1000D00000D000D0CDB7DEB71BB888E18AB986E87A
:1000E00080BD10BC83E389B90E9485037E0108941A
:1000F000E11CF11C08EC10E05F9BFECF8CB180335B
:10010000D9F7C7010E949103892BD9F3C7010E9437
:10011000480024EF31E0C8010197F1F72150304049
:10012000D1F75F9BFECF8CB1803331F7C7010E94BE
:100130009103892B31F3EACF8AE18A95F1F708958B
:1001400020E080E03AE1880FA998932F9A95F1F783
:10015000932F9A95F1F79B998160A99A932F9A957D
:10016000F1F7932F9A95F1F72F5F283061F70895F3
:1001700030E02AE119C0AA98922F9A95F1F7922FB0
:100180009A95F1F7A998922F9A95F1F7922F9A954F
:10019000F1F7A99A922F9A95F1F7922F9A95F1F784
:1001A0003F5F383029F0880F87FFE5CFAA9AE4CF68
:1001B0000895A898880F8E7780680E94B8000E94E2
:1001C000A000A89A08951F93162FA898880F8E77DD
:1001D0000E94B800812F0E94B800A89A1F9108952C
:1001E0000F931F93082F162F0E94D90010951823E4
:1001F000802F612F0E94E3001F910F9108950F93AC
:100200001F93082F162F0E94D900182B802F612FC3
:100210000E94E3001F910F910895DF92EF92FF92E9
:100220000F931F93CF93DF93082FD92E162F7A01A8
:1002300085E064E00E94F00081E060E00E94E3005D
:100240008AE060E80E94FF00112361F0802F9D2D5D
:100250009C01E90189E069910E94E3009E01201B55
:100260002117C0F381E063E00E94E30085E00E9473
:10027000D9001EEF05C085E00E94D900115011F091
:1002800082FFF9CF82E20E94D900F701808381E2E8
:100290000E94D900F7018183DF91CF911F910F91C7
:1002A000FF90EF90DF9008956F927F928F929F92D0
:1002B000AF92BF92CF92DF92EF92FF920F931F9374
:1002C000CF93DF93C82E7B01B42E490138018CE017
:1002D000C81609F4A0C0EEE0CE1609F4A2C0AA2404
:1002E000DD2460E882E00E94E30084E060E80E9490
:1002F000F00081E060E00E94E3008AE060E80E9494
:10030000FF00CB2DD0E0209771F000E010E0F70166
:10031000E00FF11F89E060810E94E3000F5F1F4F33
:100320000C171D07A0F381E06C2D0E94E300FCE098
:10033000CF1609F47FC084E00E94D900F82E0FEC9C
:1003400017E008C084E00E94D900F82E0150104048
:1003500009F443C0F0FC03C08F2D8D2199F38DE08B
:1003600060E80E94F00086E00E94D9008B71C9F518
:100370008F2D8A2180FD5BC0FF248CE0C81699F583
:100380008AE00E94D900182F8CE00E94D900482FE3
:10039000477009F454C0212F30E0C9010197880F3C
:1003A000991F880F991F880F991F840F911DF301C2
:1003B00091838083112309F04FC001E010E0C0E079
:1003C000D0E089E00E94D900F401EC0FFD1F80838A
:1003D0002196C017D107A8F306C08DE060E80E94FF
:1003E000F0008EEFF82E8CE060E80E94FF0081E0C4
:1003F00060E00E94E3008F2DDF91CF911F910F915C
:10040000FF90EF90DF90CF90BF90AF909F908F9034
:100410007F906F90089577E7A72E60E3D62E67EF61
:1004200061CFF2E1AF2EE0E1DE2E62E95BCFFF2487
:10043000FA94A3CF8DE060E80E94FF007CCF212FCB
:1004400030E0C901880F991F880F991F880F991FE5
:10045000F30191838083AECF133118F002E110E0F5
:10046000AECF8901ACCFEF92FF920F931F93DF9332
:10047000CF93CDB7DEB764970FB6F894DEBF0FBE4B
:10048000CDBF182F7B0188E068E00E94F0008DE06E
:1004900067E00E94E30084E163E00E94FF001B83A9
:1004A0009E012D5F3F4F8CE0B90141E08E010F5F4F
:1004B0001F4F0E945401282F882321F489819A819B
:1004C000409779F02EEF822F64960FB6F894DEBF36
:1004D0000FBECDBFCF91DF911F910F91FF90EF9095
:1004E00008958B81F70180838C818183ECCFEF921B
:1004F000FF920F931F93DF93CF93CDB7DEB764972F
:100500000FB6F894DEBF0FBECDBF7C0188E068E077
:100510000E94F0008DE060E00E94E3008EE060E861
:100520000E94F00083E98B8380E28C839E012D5F23
:100530003F4F8CE0B90142E08E010F5F1F4F0E94D8
:100540005401182F882379F48B81F70180832C8143
:1005500021839D819283822789279E819383892786
:100560009F8189131EEF8EE060E80E94FF00812FBB
:1005700064960FB6F894DEBF0FBECDBFCF91DF916A
:100580001F910F91FF90EF9008950F931F93DF93AA
:10059000CF93CDB7DEB764970FB6F894DEBF0FBE2A
:1005A000CDBF23E92B8320E72C831986DC01FE01D4
:1005B00035968E010D5F1F4F9E01275F3F4F8C9137
:1005C000819389859D9189278987E217F307B9F778
:1005D000C80167E0AE01465F5F4F0E940D0188E0F1
:1005E00068E00E94F0008CE0B80149E098018E01BB
:1005F0000F5F1F4F0E945401282F882369F02EEFB0
:10060000822F64960FB6F894DEBF0FBECDBFCF9198
:10061000DF911F910F91089589819A81489779F709
:10062000EFCF1F93AD9A1AE1812F8A95F1F7AD981C
:10063000812F8A95F1F7AD9A812F8A95F1F781E0A4
:100640006FE00E94E3001A95F1F781E16DE30E94EB
:10065000E3008DE26EE10E94E3008CE260E00E9424
:10066000E3008AE26DE80E94E3008BE26EE30E9401
:10067000E30085E160E40E94E30080E01F910895BB
:1006800084E10E94D90090E083709070892B09F07A
:10069000089584E163E00E94FF000895813411F021
:1006A0008FEF089588E068E00E94F00081E16DE33B
:1006B0000E94E30087E166E80E94E30086E26FE7BC
:1006C0000E94E3008DE26EE10E94E3008CE260E0B4
:1006D0000E94E3008AE26DE80E94E3008BE26EE391
:1006E0000E94E30080ED97E00197F1F70E9440033C
:1006F00080E0089584E163E00E94F000089584B3EF
:10070000876084BBA59AA39808950E947F030E94E6
:1007100011030E947A030E94400381E40E944E0369
:100720000895CF93DF93EC0186E2BE010E9433026D
:10073000882331F086E2BE010E943302882329F427
:10074000CE010E947702882329F090E0892FDF9163
:10075000CF910895CE010E94C50290E08823B1F7A1
:1007600091E0892FDF91CF910895AF92BF92CF9200
:10077000DF92EF92FF920F931F93DF93CF93CDB74A
:10078000DEB764970FB6F894DEBF0FBECDBFB62EAE
:10079000A72E90EA9B838C83A3E0EA2EF12CEC0E2B
:1007A000FD1EC70162E0AE014B5F5F4F0E940D016D
:1007B0008CE0B70144E097016E010894C11CD11C84
:1007C00086010E945401882321F489819A8104972B
:1007D00099F02EEF822F64960FB6F894DEBF0FBE0D
:1007E000CDBFCF91DF911F910F91FF90EF90DF90E0
:1007F000CF90BF90AF9008958B818F708A3049F76A
:10080000D7018B2D9A2D9C01F90180E101900D9269
:100810008150E1F7C70160E1AE014D5E5F4F0E947C
:100820000D018CE0B70142E1970186010E9454015D
:10083000282F882371F689819A81049751F68B813C
:100840008F708A3031F6C6CFCF92DF92EF92FF924F
:100850000F931F93DF93CF93CDB7DEB764970FB697
:10086000F894DEBF0FBECDBFD62EC72E90E39B837C
:100870008C83B3E0EB2EF12CEC0EFD1EC70162E081
:10088000AE014B5F5F4F0E940D018CE0B70144E069
:1008900097018E010F5F1F4F0E945401482F88233C
:1008A00029F489819A818039910589F04EEF842F4E
:1008B00064960FB6F894DEBF0FBECDBFCF91DF9127
:1008C0001F910F91FF90EF90DF90CF9008958D2DA5
:1008D0009C2D9C01D901F70180E101900D9281507E
:1008E000E1F7E5CF0F931F93DF93CF93CDB7DEB73B
:1008F00064970FB6F894DEBF0FBECDBF722F132FD3
:100900008B836C83DE011596FA0186E001900D92CF
:100910008150E1F7DE011B96872F912F9C01F90191
:1009200086E001900D928150E1F79E012D5F3F4FCF
:100930008EE0B9014CE08E010F5F1F4F0E94540101
:10094000182F882369F01EEF812F64960FB6F89454
:10095000DEBF0FBECDBFCF91DF911F910F910895E4
:1009600088E00E94D90083FFEECFEECFF894FFCF4E
:00000001FF
